{"abi":[{"type":"constructor","inputs":[],"stateMutability":"nonpayable"},{"type":"function","name":"approve","inputs":[{"name":"to","type":"address","internalType":"address"},{"name":"tokenId","type":"uint256","internalType":"uint256"}],"outputs":[],"stateMutability":"nonpayable"},{"type":"function","name":"balanceOf","inputs":[{"name":"owner","type":"address","internalType":"address"}],"outputs":[{"name":"","type":"uint256","internalType":"uint256"}],"stateMutability":"view"},{"type":"function","name":"currentTokenId","inputs":[],"outputs":[{"name":"","type":"uint256","internalType":"uint256"}],"stateMutability":"view"},{"type":"function","name":"external_url","inputs":[],"outputs":[{"name":"","type":"string","internalType":"string"}],"stateMutability":"view"},{"type":"function","name":"firstTimePrice","inputs":[],"outputs":[{"name":"","type":"uint128","internalType":"uint128"}],"stateMutability":"view"},{"type":"function","name":"getApproved","inputs":[{"name":"tokenId","type":"uint256","internalType":"uint256"}],"outputs":[{"name":"","type":"address","internalType":"address"}],"stateMutability":"view"},{"type":"function","name":"getETHBalance","inputs":[],"outputs":[{"name":"","type":"uint256","internalType":"uint256"}],"stateMutability":"view"},{"type":"function","name":"getOwnedNFTs","inputs":[{"name":"_walletAddress","type":"address","internalType":"address"}],"outputs":[{"name":"","type":"tuple[]","internalType":"struct iArtNFT.nftData[]","components":[{"name":"tokenId","type":"uint256","internalType":"uint256"},{"name":"creationDate","type":"uint256","internalType":"uint256"},{"name":"paintingName","type":"string","internalType":"string"},{"name":"paintingDescription","type":"string","internalType":"string"},{"name":"nftImageIpfsHash","type":"string","internalType":"string"}]}],"stateMutability":"view"},{"type":"function","name":"isApprovedForAll","inputs":[{"name":"owner","type":"address","internalType":"address"},{"name":"operator","type":"address","internalType":"address"}],"outputs":[{"name":"","type":"bool","internalType":"bool"}],"stateMutability":"view"},{"type":"function","name":"mint","inputs":[{"name":"to","type":"address","internalType":"address"},{"name":"tokenId","type":"uint256","internalType":"uint256"},{"name":"_nftImageIpfsHash","type":"string","internalType":"string"}],"outputs":[],"stateMutability":"nonpayable"},{"type":"function","name":"mintToPayer","inputs":[{"name":"_paintingName","type":"string","internalType":"string"},{"name":"_paintingDescription","type":"string","internalType":"string"},{"name":"_nftImageIpfsHash","type":"string","internalType":"string"}],"outputs":[],"stateMutability":"payable"},{"type":"function","name":"name","inputs":[],"outputs":[{"name":"","type":"string","internalType":"string"}],"stateMutability":"view"},{"type":"function","name":"nftList","inputs":[{"name":"","type":"uint256","internalType":"uint256"}],"outputs":[{"name":"tokenId","type":"uint256","internalType":"uint256"},{"name":"creationDate","type":"uint256","internalType":"uint256"},{"name":"paintingName","type":"string","internalType":"string"},{"name":"paintingDescription","type":"string","internalType":"string"},{"name":"nftImageIpfsHash","type":"string","internalType":"string"}],"stateMutability":"view"},{"type":"function","name":"normalPrice","inputs":[],"outputs":[{"name":"","type":"uint128","internalType":"uint128"}],"stateMutability":"view"},{"type":"function","name":"offerPrice","inputs":[],"outputs":[{"name":"","type":"uint128","internalType":"uint128"}],"stateMutability":"view"},{"type":"function","name":"ownedNFTs","inputs":[{"name":"","type":"address","internalType":"address"},{"name":"","type":"uint256","internalType":"uint256"}],"outputs":[{"name":"","type":"uint256","internalType":"uint256"}],"stateMutability":"view"},{"type":"function","name":"owner","inputs":[],"outputs":[{"name":"","type":"address","internalType":"address"}],"stateMutability":"view"},{"type":"function","name":"ownerOf","inputs":[{"name":"tokenId","type":"uint256","internalType":"uint256"}],"outputs":[{"name":"","type":"address","internalType":"address"}],"stateMutability":"view"},{"type":"function","name":"renounceOwnership","inputs":[],"outputs":[],"stateMutability":"nonpayable"},{"type":"function","name":"safeTransferFrom","inputs":[{"name":"from","type":"address","internalType":"address"},{"name":"to","type":"address","internalType":"address"},{"name":"tokenId","type":"uint256","internalType":"uint256"}],"outputs":[],"stateMutability":"nonpayable"},{"type":"function","name":"safeTransferFrom","inputs":[{"name":"from","type":"address","internalType":"address"},{"name":"to","type":"address","internalType":"address"},{"name":"tokenId","type":"uint256","internalType":"uint256"},{"name":"data","type":"bytes","internalType":"bytes"}],"outputs":[],"stateMutability":"nonpayable"},{"type":"function","name":"setApprovalForAll","inputs":[{"name":"operator","type":"address","internalType":"address"},{"name":"approved","type":"bool","internalType":"bool"}],"outputs":[],"stateMutability":"nonpayable"},{"type":"function","name":"setExternalUrl","inputs":[{"name":"_external_url","type":"string","internalType":"string"}],"outputs":[],"stateMutability":"nonpayable"},{"type":"function","name":"setFirstTimePrice","inputs":[{"name":"_firstTimePrice","type":"uint128","internalType":"uint128"}],"outputs":[],"stateMutability":"nonpayable"},{"type":"function","name":"setNormalPrice","inputs":[{"name":"_normalPrice","type":"uint128","internalType":"uint128"}],"outputs":[],"stateMutability":"nonpayable"},{"type":"function","name":"setOfferPrice","inputs":[{"name":"_offerPrice","type":"uint128","internalType":"uint128"}],"outputs":[],"stateMutability":"nonpayable"},{"type":"function","name":"setOfferTime","inputs":[{"name":"_offerTime","type":"bool","internalType":"bool"}],"outputs":[],"stateMutability":"nonpayable"},{"type":"function","name":"supportsInterface","inputs":[{"name":"interfaceId","type":"bytes4","internalType":"bytes4"}],"outputs":[{"name":"","type":"bool","internalType":"bool"}],"stateMutability":"view"},{"type":"function","name":"symbol","inputs":[],"outputs":[{"name":"","type":"string","internalType":"string"}],"stateMutability":"view"},{"type":"function","name":"tokenURI","inputs":[{"name":"tokenId","type":"uint256","internalType":"uint256"}],"outputs":[{"name":"","type":"string","internalType":"string"}],"stateMutability":"view"},{"type":"function","name":"transferFrom","inputs":[{"name":"from","type":"address","internalType":"address"},{"name":"to","type":"address","internalType":"address"},{"name":"tokenId","type":"uint256","internalType":"uint256"}],"outputs":[],"stateMutability":"nonpayable"},{"type":"function","name":"transferOwnership","inputs":[{"name":"newOwner","type":"address","internalType":"address"}],"outputs":[],"stateMutability":"nonpayable"},{"type":"function","name":"withdraw","inputs":[],"outputs":[],"stateMutability":"nonpayable"},{"type":"event","name":"Approval","inputs":[{"name":"owner","type":"address","indexed":true,"internalType":"address"},{"name":"approved","type":"address","indexed":true,"internalType":"address"},{"name":"tokenId","type":"uint256","indexed":true,"internalType":"uint256"}],"anonymous":false},{"type":"event","name":"ApprovalForAll","inputs":[{"name":"owner","type":"address","indexed":true,"internalType":"address"},{"name":"operator","type":"address","indexed":true,"internalType":"address"},{"name":"approved","type":"bool","indexed":false,"internalType":"bool"}],"anonymous":false},{"type":"event","name":"BatchMetadataUpdate","inputs":[{"name":"_fromTokenId","type":"uint256","indexed":false,"internalType":"uint256"},{"name":"_toTokenId","type":"uint256","indexed":false,"internalType":"uint256"}],"anonymous":false},{"type":"event","name":"MetadataUpdate","inputs":[{"name":"_tokenId","type":"uint256","indexed":false,"internalType":"uint256"}],"anonymous":false},{"type":"event","name":"OwnershipTransferred","inputs":[{"name":"previousOwner","type":"address","indexed":true,"internalType":"address"},{"name":"newOwner","type":"address","indexed":true,"internalType":"address"}],"anonymous":false},{"type":"event","name":"Transfer","inputs":[{"name":"from","type":"address","indexed":true,"internalType":"address"},{"name":"to","type":"address","indexed":true,"internalType":"address"},{"name":"tokenId","type":"uint256","indexed":true,"internalType":"uint256"}],"anonymous":false},{"type":"event","name":"nftMinted","inputs":[{"name":"tokenId","type":"uint256","indexed":false,"internalType":"uint256"}],"anonymous":false},{"type":"error","name":"ERC721IncorrectOwner","inputs":[{"name":"sender","type":"address","internalType":"address"},{"name":"tokenId","type":"uint256","internalType":"uint256"},{"name":"owner","type":"address","internalType":"address"}]},{"type":"error","name":"ERC721InsufficientApproval","inputs":[{"name":"operator","type":"address","internalType":"address"},{"name":"tokenId","type":"uint256","internalType":"uint256"}]},{"type":"error","name":"ERC721InvalidApprover","inputs":[{"name":"approver","type":"address","internalType":"address"}]},{"type":"error","name":"ERC721InvalidOperator","inputs":[{"name":"operator","type":"address","internalType":"address"}]},{"type":"error","name":"ERC721InvalidOwner","inputs":[{"name":"owner","type":"address","internalType":"address"}]},{"type":"error","name":"ERC721InvalidReceiver","inputs":[{"name":"receiver","type":"address","internalType":"address"}]},{"type":"error","name":"ERC721InvalidSender","inputs":[{"name":"sender","type":"address","internalType":"address"}]},{"type":"error","name":"ERC721NonexistentToken","inputs":[{"name":"tokenId","type":"uint256","internalType":"uint256"}]},{"type":"error","name":"OwnableInvalidOwner","inputs":[{"name":"owner","type":"address","internalType":"address"}]},{"type":"error","name":"OwnableUnauthorizedAccount","inputs":[{"name":"account","type":"address","internalType":"address"}]}],"bytecode":{"object":"0x608034620003b2576001600160401b03906040818101838111838210176200039c57815260088252602091671a5054950b53919560c21b83820152815193828501858110828211176200039c578352600385526234a0a760e91b8486015281518181116200039c576000948554916001948584811c9416801562000391575b838510146200037d578190601f948581116200032a575b508390858311600114620002c6578992620002ba575b5050600019600383901b1c191690851b1786555b8651928311620002a65783548481811c911680156200029b575b8282101462000287578281116200023f575b5080918311600114620001d8575084958293949592620001cc575b5050600019600383901b1c191690821b1790555b3315620001b45760078054336001600160a01b03198216811790925591519290916001600160a01b0316907f8be0079c531659141344cd1fd0a4f28419497f9722a3daafe3b4186f6b6457e09080a3760ffcb9e57d400000000000000000000005543df729c000600955600a80546001600160801b0319166605543df729c000179055600c805460ff191690556127d39081620003b88239f35b51631e4fbdf760e01b81526004810191909152602490fd5b01519050388062000106565b90601f198316968487528287209287905b898210620002275750508385969798106200020d575b505050811b0190556200011a565b015160001960f88460031b161c19169055388080620001ff565b808785968294968601518155019501930190620001e9565b8487528187208380860160051c8201928487106200027d575b0160051c019085905b82811062000271575050620000eb565b88815501859062000261565b9250819262000258565b634e487b7160e01b87526022600452602487fd5b90607f1690620000d9565b634e487b7160e01b86526041600452602486fd5b015190503880620000ab565b898052848a208894509190601f1984168b5b87828210620003135750508411620002f9575b505050811b018655620000bf565b015160001960f88460031b161c19169055388080620002eb565b8385015186558b97909501949384019301620002d8565b9091508880528389208580850160051c82019286861062000373575b918991869594930160051c01915b8281106200036457505062000095565b8b815585945089910162000354565b9250819262000346565b634e487b7160e01b88526022600452602488fd5b93607f16936200007e565b634e487b7160e01b600052604160045260246000fd5b600080fdfe608080604052600436101561001357600080fd5b60003560e01c9081629a9b7b14611e815750806301ffc9a714611df957806306fdde0314611d4e578063081812fc14611d10578063095ea7b314611c2957806318148f1b14611a0e5780631a72b87d146119bd5780631c6912a61461100257806323b872dd14610feb57806326d58ad314610e935780633bf19e2914610e6c5780633ccfd60b14610e2657806342842e0e14610df85780634a3b138214610dae5780636352211e14610d7e5780636e94729814610d6257806370a0823114610d09578063715018a614610cac57806375bea16614610c1a57806376e9ec4f14610bd75780638da5cb5b14610bae578063945ec9dd14610b8d57806395d89b4114610adf5780639f24dd9a14610aa6578063a22cb46514610a01578063b88d4fde14610995578063c07357a71461096e578063c28270511461089d578063c87b56dd14610840578063d3fc9864146102b5578063e985e9c51461025f578063f2fde38b146101d15763f90105d41461018957600080fd5b346101cc5760203660031901126101cc576004356001600160801b0381168091036101cc576101b66122ed565b6001600160801b0319600a541617600a55600080f35b600080fd5b346101cc5760203660031901126101cc576101ea611ee4565b6101f26122ed565b6001600160a01b0390811690811561024657600754826bffffffffffffffffffffffff60a01b821617600755167f8be0079c531659141344cd1fd0a4f28419497f9722a3daafe3b4186f6b6457e0600080a3005b604051631e4fbdf760e01b815260006004820152602490fd5b346101cc5760403660031901126101cc57610278611ee4565b610280611efa565b9060018060a01b03809116600052600560205260406000209116600052602052602060ff604060002054166040519015158152f35b346101cc5760603660031901126101cc576102ce611ee4565b6001600160401b036044358181116101cc576102ee903690600401611fb9565b916040516102fb81611f2b565b600081526001600160a01b03828116156108275761031b60243584612319565b1661080e5761032d91602435906123d5565b602435600052600e6020526040600020916040519261034b84611f10565b8054845260018101549360208101948552608061038e600461036f60028601612046565b946040850195865261038360038201612046565b606086015201612046565b9101525192519260405191733d913730b6b2911d1034a0b93a27232a1016901160611b602084015281516103c9816034860160208601611e9c565b61088b60f21b6034918501918201527f226465736372697074696f6e223a202254686973206469676974616c2063657260368201527f7469666963617465207365727665732061732061757468656e7469632065766960568201527f64656e636520746861742074686520737065636966696564206d61696e74656e60768201527f616e6365206f7065726174696f6e73207765726520706572666f726d6564207560968201527f6e64657220737065636966696320636f6e646974696f6e73222c00000000000060b6820152701132bc3a32b93730b62fbab936111d101160791b60d0820152600b5460009160e16104c18361200c565b92600181169081156107e6575060011461079d575b5050506105f194956105ec93609293869361088b60f21b8152691134b6b0b3b2911d101160b11b6002820152610516825180936020600c85019101611e9c565b0161088b60f21b600c8201526e2261747472696275746573223a205b60881b600e8201527f7b2274726169745f74797065223a20227061696e74696e674e616d65222c0000601d82015269113b30b63ab2911d101160b11b603b820152610587825180936020604585019101611e9c565b019062089f4b60ea1b60458301527f7b2274726169745f74797065223a20226372656174696f6e44617465222c00006048830152680113b30b63ab2911d160bd1b6066830152606f820152627d5d7d60e81b608f820152036072810184520182611f46565b6125ef565b90610645603d60405180947f646174613a6170706c69636174696f6e2f6a736f6e3b6261736536342c00000060208301526106358151809260208686019101611e9c565b810103601d810185520183611f46565b6024356000526006602052604060002090825190811161078757610669825461200c565b601f811161073f575b50602092601f82116001146106db57928192936000926106d0575b50508160011b916000199060031b1c19161790555b7ff8e1a15aba9398e019f0b49df1a4fde98ee17ae345cb5f6b5e2c27f5033e8ce760206040516024358152a1005b01519050838061068d565b601f198216938360005260206000209160005b868110610727575083600195961061070e575b505050811b0190556106a2565b015160001960f88460031b161c19169055838080610701565b919260206001819286850151815501940192016106ee565b826000526020600020601f830160051c8101916020841061077d575b601f0160051c01905b8181106107715750610672565b60008155600101610764565b909150819061075b565b634e487b7160e01b600052604160045260246000fd5b90919250600b60005260008051602061277e8339815191526000905b8482106107d0575050500160e101858360926104d6565b60018160209254858588010152019101906107b9565b60ff191660e184810191909152841515909402909201909201925087915084905060926104d6565b6040516339e3563760e11b815260006004820152602490fd5b604051633250574960e11b815260006004820152602490fd5b346101cc5760203660031901126101cc5760043561085d816122b2565b5060005260066020526108996108766040600020612046565b600060405161088481611f2b565b52604051918291602083526020830190611ebf565b0390f35b346101cc5760003660031901126101cc57604051600b546000826108c08361200c565b918282526020936001908560018216918260001461094e575050600114610903575b506108ef92500383611f46565b610899604051928284938452830190611ebf565b849150600b60005260008051602061277e833981519152906000915b8583106109365750506108ef9350820101856108e2565b8054838901850152879450869390920191810161091f565b60ff1916858201526108ef95151560051b85010192508791506108e29050565b346101cc5760003660031901126101cc5760206001600160801b0360095416604051908152f35b346101cc5760803660031901126101cc576109ae611ee4565b6109b6611efa565b90604435606435926001600160401b0384116101cc57366023850112156101cc576109ee6109ff943690602481600401359101611f82565b926109fa83838361212c565b612509565b005b346101cc5760403660031901126101cc57610a1a611ee4565b602435908115158092036101cc576001600160a01b0316908115610a8d57336000526005602052604060002082600052602052604060002060ff1981541660ff83161790556040519081527f17307eab39ab6107e8899845ad3d59bd9653f200f220920489ca2b5937696c3160203392a3005b604051630b61174360e31b815260048101839052602490fd5b346101cc5760203660031901126101cc576004358015158091036101cc57610acc6122ed565b60ff8019600c5416911617600c55600080f35b346101cc5760003660031901126101cc57604051600060018260015492610b058461200c565b928383526020948560018216918260001461094e575050600114610b3057506108ef92500383611f46565b84915060016000527fb10e2d527612073b26eecdfd717e6a320cf44b4afac2b0732d9fcbe2b7fa0cf6906000915b858310610b755750506108ef9350820101856108e2565b80548389018501528794508693909201918101610b5e565b346101cc5760003660031901126101cc57602060095460801c604051908152f35b346101cc5760003660031901126101cc576007546040516001600160a01b039091168152602090f35b346101cc5760203660031901126101cc576004356001600160801b0381168091036101cc57610c046122ed565b6001600160801b03196009541617600955600080f35b346101cc5760203660031901126101cc57600435600052600e60205260406000208054610899600183015492610c9e610c5560028301612046565b91610c90610c716004610c6a60038501612046565b9301612046565b936040519788978852602088015260a0604088015260a0870190611ebf565b908582036060870152611ebf565b908382036080850152611ebf565b346101cc5760003660031901126101cc57610cc56122ed565b600780546001600160a01b031981169091556000906001600160a01b03167f8be0079c531659141344cd1fd0a4f28419497f9722a3daafe3b4186f6b6457e08280a3005b346101cc5760203660031901126101cc576001600160a01b03610d2a611ee4565b168015610d495760005260036020526020604060002054604051908152f35b6040516322718ad960e21b815260006004820152602490fd5b346101cc5760003660031901126101cc57602047604051908152f35b346101cc5760203660031901126101cc576020610d9c6004356122b2565b6040516001600160a01b039091168152f35b346101cc5760203660031901126101cc576004356001600160801b0380821682036101cc57610ddb6122ed565b600954916001600160801b03199060801b16911617600955600080f35b346101cc576109ff610e0936611fd7565b9060405192610e1784611f2b565b600084526109fa83838361212c565b346101cc5760003660031901126101cc57610e3f6122ed565b600080808047818115610e63575b3390f115610e5757005b6040513d6000823e3d90fd5b506108fc610e4d565b346101cc5760003660031901126101cc5760206001600160801b03600a5416604051908152f35b346101cc576020806003193601126101cc576001600160401b036004358181116101cc57610ec5903690600401611fb9565b91610ece6122ed565b825191821161078757610ee2600b5461200c565b601f8111610f98575b50602090601f8311600114610f2957508192600092610f1e575b5050600019600383901b1c191660019190911b17600b55005b015190508280610f05565b90601f19831693600b60005260008051602061277e833981519152926000905b868210610f805750508360019510610f67575b505050811b01600b55005b015160001960f88460031b161c19169055828080610f5c565b80600185968294968601518155019501930190610f49565b600b60005260008051602061277e833981519152601f840160051c81019160208510610fe1575b601f0160051c01905b818110610fd55750610eeb565b60008155600101610fc8565b9091508190610fbf565b346101cc576109ff610ffc36611fd7565b9161212c565b60603660031901126101cc576004356001600160401b0381116101cc5761102d903690600401611fb9565b6024356001600160401b0381116101cc5761104c903690600401611fb9565b906044356001600160401b0381116101cc5761106c903690600401611fb9565b916009548060801c600160ff600c541615151460001461198f5750506001600160801b0380600a54165b16341061193e578251156118f9576008549160001983146118e35760018301600855604051906110c582611f10565b600184018252602082019242845260408301918252606083015284608083015260018401600052600e60205260406000209282518455516001840155518051906001600160401b038211610787578190611122600286015461200c565b601f8111611890575b50602090601f831160011461181e57600092611813575b50508160011b916000199060031b1c19161760028301555b60608101518051906001600160401b0382116107875761117d600385015461200c565b601f81116117cc575b50602090601f83116001146117595760809392916000918361174e575b50508160011b916000199060031b1c19161760038401555b01518051906001600160401b038211610787576111db600484015461200c565b601f8111611707575b50602090601f831160011461169757600492916000918361168c575b50508160011b916000199060031b1c1916179101555b60405161122281611f2b565b600081523315610827576001600160a01b036112416001840133612319565b1661080e576112549060018301336123d5565b60018101600052600e60205260406000206040519061127282611f10565b80548252600181015491602081019283526080611296600461036f60028601612046565b91015251905160405191733d913730b6b2911d1034a0b93a27232a1016901160611b60208401528051946112d1866034860160208501611e9c565b61088b60f21b84870160348101919091527f226465736372697074696f6e223a202254686973206469676974616c2063657260368201527f7469666963617465207365727665732061732061757468656e7469632065766960568201527f64656e636520746861742074686520737065636966696564206d61696e74656e60768201527f616e6365206f7065726174696f6e73207765726520706572666f726d6564207560968201527f6e64657220737065636966696320636f6e646974696f6e73222c00000000000060b6820152701132bc3a32b93730b62fbab936111d101160791b60d090910152600b54600096906113cb8161200c565b90600181169081156116645750600114611615575b50506105ec92609292859261141f979861088b60f21b8152691134b6b0b3b2911d101160b11b6002820152610516825180936020600c85019101611e9c565b611472603d60405180937f646174613a6170706c69636174696f6e2f6a736f6e3b6261736536342c00000060208301526114628151809260208686019101611e9c565b810103601d810184520182611f46565b6001820160005260066020526040600020908051906001600160401b0382116107875761149f835461200c565b601f81116115cd575b50602090601f8311600114611540579180602094927fffd68f154a856e351841a0ab55b762d44c0ab63bb8df164aced57a49d25c84499694600092611535575b50508160011b916000199060031b1c19161790555b7ff8e1a15aba9398e019f0b49df1a4fde98ee17ae345cb5f6b5e2c27f5033e8ce782604051600184018152a1600160405191018152a1005b0151905086806114e8565b90601f198316918460005260206000209260005b8181106115b557509260019285927fffd68f154a856e351841a0ab55b762d44c0ab63bb8df164aced57a49d25c84499896602098961061159c575b505050811b0190556114fd565b015160001960f88460031b161c1916905586808061158f565b92936020600181928786015181550195019301611554565b836000526020600020601f840160051c8101916020851061160b575b601f0160051c01905b8181106115ff57506114a8565b600081556001016115f2565b90915081906115e9565b909650600b60005260008051602061277e8339815191526000905b82821061164b57505095840190950160e101948260926113e0565b6001816020925460e1858d8c0101015201910190611630565b60ff191692870160e181810194909452821515909202909101909101965083905060926113e0565b015190508680611200565b906004840160005260206000209160005b601f19851681106116ef5750918391600193600495601f198116106116d6575b505050811b01910155611216565b015160001960f88460031b161c191690558680806116c8565b919260206001819286850151815501940192016116a8565b600484016000526020600020601f840160051c810160208510611747575b601f830160051c8201811061173b5750506111e4565b60008155600101611725565b5080611725565b0151905087806111a3565b906003850160005260206000209160005b601f19851681106117b4575091839160019360809695601f1981161061179b575b505050811b0160038401556111bb565b015160001960f88460031b161c1916905587808061178b565b9192602060018192868501518155019401920161176a565b600385016000526020600020601f840160051c81016020851061180c575b601f830160051c82018110611800575050611186565b600081556001016117ea565b50806117ea565b015190508680611142565b9250600285016000526020600020906000935b601f1984168510611875576001945083601f1981161061185c575b505050811b01600283015561115a565b015160001960f88460031b161c1916905586808061184c565b81810151835560209485019460019093019290910190611831565b909150600285016000526020600020601f840160051c8101602085106118dc575b90849392915b601f830160051c820181106118cd57505061112b565b600081558594506001016118b7565b50806118b1565b634e487b7160e01b600052601160045260246000fd5b60405162461bcd60e51b815260206004820152601960248201527f4950465320496d6167652048617368206973206e6565646564000000000000006044820152606490fd5b60405162461bcd60e51b815260206004820152602360248201527f596f7520646964206e6f742073656e642074686520636f727265637420616d6f6044820152621d5b9d60ea1b6064820152608490fd5b6001600160801b039133600052600d602052604060002054156119b3575b50611096565b82915016856119ad565b346101cc5760403660031901126101cc576119d6611ee4565b6001600160a01b03166000908152600d602052604090208054602435908110156101cc57602091600052816000200154604051908152f35b346101cc576020806003193601126101cc57611a28611ee4565b611a306122ed565b60018060a01b0316600052600d81526040600020604051808284829454938481520190600052846000209260005b86828210611c135784611a7381860382611f46565b8051611a97611a81826120eb565b91611a8f6040519384611f46565b8083526120eb565b601f19018360005b828110611bdd5750505060005b8251811015611b365780611ac260019285612102565b51600052600e85526040600020611b15600460405192611ae184611f10565b805484528581015489850152611af960028201612046565b6040850152611b0a60038201612046565b606085015201612046565b6080820152611b248285612102565b52611b2f8184612102565b5001611aac565b604080518581528351818701819052600092600582901b830181019186890191899085015b828710611b685785850386f35b909192938280611bcd600193603f198a82030186528851611bba611ba760a0835185528684015187860152604084015190806040870152850190611ebf565b6060808401519085830390860152611ebf565b9160808092015191818403910152611ebf565b9601920196019592919092611b5b565b604051611be981611f10565b60008152600083820152606080604083015280808301526080820152828286010152018490611a9f565b8554845260019586019587955093019201611a5e565b346101cc5760403660031901126101cc57611c42611ee4565b602435611c4e816122b2565b33151580611cfd575b80611cd0575b611cb8576001600160a01b039283169282918491167f8c5be1e5ebec7d5bd14f71427d1e84f3dd0314c0f7b2291e5b200ac8c7c3b925600080a4600090815260046020526040902080546001600160a01b0319169091179055005b60405163a9fbf51f60e01b8152336004820152602490fd5b5060018060a01b038116600052600560205260406000203360005260205260ff6040600020541615611c5d565b506001600160a01b038116331415611c57565b346101cc5760203660031901126101cc57600435611d2d816122b2565b506000526004602052602060018060a01b0360406000205416604051908152f35b346101cc5760003660031901126101cc57604051600080549082611d718361200c565b918282526020936001908560018216918260001461094e575050600114611d9f57506108ef92500383611f46565b6000808052859250907f290decd9548b62a8d60345a988386fc84ba6bc95484008f6362f93160ef3e5635b858310611de15750506108ef9350820101856108e2565b80548389018501528794508693909201918101611dca565b346101cc5760203660031901126101cc5760043563ffffffff60e01b81168091036101cc57602090632483248360e11b8114908115611e3e575b506040519015158152f35b6380ac58cd60e01b811491508115611e70575b8115611e5f575b5082611e33565b6301ffc9a760e01b14905082611e58565b635b5e139f60e01b81149150611e51565b346101cc5760003660031901126101cc576020906008548152f35b60005b838110611eaf5750506000910152565b8181015183820152602001611e9f565b90602091611ed881518092818552858086019101611e9c565b601f01601f1916010190565b600435906001600160a01b03821682036101cc57565b602435906001600160a01b03821682036101cc57565b60a081019081106001600160401b0382111761078757604052565b602081019081106001600160401b0382111761078757604052565b90601f801991011681019081106001600160401b0382111761078757604052565b6001600160401b03811161078757601f01601f191660200190565b929192611f8e82611f67565b91611f9c6040519384611f46565b8294818452818301116101cc578281602093846000960137010152565b9080601f830112156101cc57816020611fd493359101611f82565b90565b60609060031901126101cc576001600160a01b039060043582811681036101cc579160243590811681036101cc579060443590565b90600182811c9216801561203c575b602083101461202657565b634e487b7160e01b600052602260045260246000fd5b91607f169161201b565b906040519182600082546120598161200c565b908184526020946001916001811690816000146120c9575060011461208a575b50505061208892500383611f46565b565b600090815285812095935091905b8183106120b15750506120889350820101388080612079565b85548884018501529485019487945091830191612098565b9250505061208894925060ff191682840152151560051b820101388080612079565b6001600160401b0381116107875760051b60200190565b80518210156121165760209160051b010190565b634e487b7160e01b600052603260045260246000fd5b6001600160a01b0391821692909183156108275760009282845282602095600287526040968488882054169687913315158061221c575b509060027fddf252ad1be2c89b69c2b068fc378daa952ba7f163c4a11628f55a4df523b3ef92846121e9575b858352600381528b8320805460010190558683525289812080546001600160a01b0319168517905580a416928383036121c85750505050565b6064945051926364283d7b60e01b8452600484015260248301526044820152fd5b600087815260046020526040902080546001600160a01b0319169055848352600381528b8320805460001901905561218f565b91939450915080612271575b1561223857859291879138612163565b878688612255576024915190637e27328960e01b82526004820152fd5b604491519063177e802f60e01b82523360048301526024820152fd5b503387148015612296575b806122285750858252600481523385898420541614612228565b5086825260058152878220338352815260ff888320541661227c565b6000818152600260205260409020546001600160a01b03169081156122d5575090565b60249060405190637e27328960e01b82526004820152fd5b6007546001600160a01b0316330361230157565b60405163118cdaa760e01b8152336004820152602490fd5b6000828152600260205260408120546001600160a01b03908116939284917fddf252ad1be2c89b69c2b068fc378daa952ba7f163c4a11628f55a4df523b3ef91836123a0575b169283612388575b84815260026020526040812080546001600160a01b0319168517905580a490565b83815260036020526040812060018154019055612367565b600086815260046020526040902080546001600160a01b0319169055838552600360205260408520805460001901905561235f565b803b6123e057505050565b926124299360018060a01b031692604051630a85bd0160e11b91828252336004830152600094856024840152604483015260806064830152818060209889936084830190611ebf565b038187895af18491816124c5575b50612497575050503d60001461248f573d61245181611f67565b9061245f6040519283611f46565b81528091843d92013e5b8051928361248a57604051633250574960e11b815260048101849052602490fd5b019050fd5b506060612469565b919450915063ffffffff60e01b16036124ad5750565b60249060405190633250574960e11b82526004820152fd5b9091508681813d8311612502575b6124dd8183611f46565b810103126124fe57516001600160e01b0319811681036124fe579038612437565b8480fd5b503d6124d3565b813b612516575b50505050565b604051630a85bd0160e11b8082523360048301526001600160a01b03928316602483015260448201949094526080606482015260209592909116939092908390612564906084830190611ebf565b039285816000958187895af18491816125af575b50612592575050503d60001461248f573d61245181611f67565b919450915063ffffffff60e01b16036124ad575038808080612510565b9091508681813d83116125e8575b6125c78183611f46565b810103126124fe57516001600160e01b0319811681036124fe579038612578565b503d6125bd565b908151156127685760405191606083018381106001600160401b0382111761078757604052604083527f4142434445464748494a4b4c4d4e4f505152535455565758595a61626364656660208401527f6768696a6b6c6d6e6f707172737475767778797a303132333435363738392b2f6040840152805192600291600285018095116118e357600394859004600281901b93906001600160fe1b038116036118e357946126b461269e85611f67565b946126ac6040519687611f46565b808652611f67565b6020850190601f190136823792829183518401976020890192835194600085525b8a811061271b57505050506003939495965052510680600114612708576002146126fd575090565b603d90600019015390565b50603d9081600019820153600119015390565b836004919b989b019a8b51600190603f9082828260121c16870101518453828282600c1c16870101518385015382828260061c1687010151878501531684010151858201530196996126d5565b905060405161277681611f2b565b600081529056fe0175b7a638427703f0dbe7bb9bbf987a2551717b34e79f33b5b1008d1fa01db9a26469706673582212200495ea35f9070a662813305e08ea23da0989335f2ac7759da32dcce4b4be66e264736f6c63430008180033","linkReferences":{}},"methodIdentifiers":{"approve(address,uint256)":"095ea7b3","balanceOf(address)":"70a08231","currentTokenId()":"009a9b7b","external_url()":"c2827051","firstTimePrice()":"c07357a7","getApproved(uint256)":"081812fc","getETHBalance()":"6e947298","getOwnedNFTs(address)":"18148f1b","isApprovedForAll(address,address)":"e985e9c5","mint(address,uint256,string)":"d3fc9864","mintToPayer(string,string,string)":"1c6912a6","name()":"06fdde03","nftList(uint256)":"75bea166","normalPrice()":"945ec9dd","offerPrice()":"3bf19e29","ownedNFTs(address,uint256)":"1a72b87d","owner()":"8da5cb5b","ownerOf(uint256)":"6352211e","renounceOwnership()":"715018a6","safeTransferFrom(address,address,uint256)":"42842e0e","safeTransferFrom(address,address,uint256,bytes)":"b88d4fde","setApprovalForAll(address,bool)":"a22cb465","setExternalUrl(string)":"26d58ad3","setFirstTimePrice(uint128)":"76e9ec4f","setNormalPrice(uint128)":"4a3b1382","setOfferPrice(uint128)":"f90105d4","setOfferTime(bool)":"9f24dd9a","supportsInterface(bytes4)":"01ffc9a7","symbol()":"95d89b41","tokenURI(uint256)":"c87b56dd","transferFrom(address,address,uint256)":"23b872dd","transferOwnership(address)":"f2fde38b","withdraw()":"3ccfd60b"},"id":37}